:10000000B0C40020E9020000E5020000E5020000A3
:10001000E5020000E5020000E5020000000000002B
:10002000000000000000000000000000E5020000E9
:10003000E502000000000000E5020000E50200000B
:10004000E5020000E5020000E5020000E502000014
:10005000E5020000E5020000E5020000E502000004
:10006000E5020000E5020000E502000005200000B6
:10007000E5020000E5020000E5020000E5020000E4
:10008000E5020000E5020000E5020000E5020000D4
:10009000E5020000E5020000E5020000E5020000C4
:1000A000E5020000E5020000E5020000E5020000B4
:1000B000E5020000B91D0000CD1D0000E5020000B2
:1000C000E5020000E5020000E5020000E502000094
:1000D000E5020000E5020000E5020000E502000084
:1000E000E5020000E5020000000000000000000042
:1000F00000000000351F0000E5020000E5020000DE
:10010000E5020000E5020000E5020000E502000053
:10011000E5020000E50200006129000075290000E9
:10012000892900009D290000E5020000E502000089
:10013000E5020000E5020000E5020000E502000023
:10014000E5020000E5020000E5020000E502000013
:10015000E5020000E50200000000000000000000D1
:10016000000000000000000000000000000000008F
:10017000000000000000000000000000000000007F
:100180002D3F0000393F0000453F0000513F000077
:1001900000000000E5020000E5020000E5020000AA
:1001A000E5020000E5020000E5020000E5020000B3
:1001B000E5020000E5020000E5020000E5020000A3
:1001C000E5020000E5020000E5020000E502000093
:1001D000E5020000E5020000E5020000E502000083
:1001E000E5020000E5020000E5020000E502000073
:1001F000E5020000E5020000E5020000E502000063
:10020000E50200000000000000000000E502000020
:10021000E5020000E5020000E5020000E502000042
:10022000E5020000E5020000E5020000E502000032
:10023000E5020000E5020000E5020000E502000022
:10024000E5020000E5020000E5020000E502000012
:10025000E5020000E5020000E5020000E502000002
:100260000000000010B5054C237833B9044B13B1DE
:100270000448AFF300800123237010BD6800002004
:1002800000000000105100000C4B43B10C480D4918
:1002900010B5AFF300800C48036823B910BD0A48BD
:1002A000036833B97047094B002BF7D0BDE8104005
:1002B0001847064B002BF5D0184700BF0000000080
:1002C000105100006C0000201051000000000000E0
:1002D00008B5024B9847024B984708BDE908000053
:1002E000ED4C0000FEE7000008B5154B154A9A4298
:1002F00009D0134B134A03E0116819600433043228
:1003000011498B42F8D3114B02E000221A600433EA
:100310000F4A9342F9D30F4B0F4A22F07F029A60A3
:10032000D3F8882042F47002C3F88820BFF34F8FBF
:10033000BFF36F8F094B9847094B9847FEE700BF03
:10034000000000201051000068000020680000201C
:10035000B004002000ED00E000000000F94C0000B7
:10036000154C000008B5064A536943F40073536105
:10037000044B9847024604490448054B984708BD7A
:100380000008004001200000002400406C04002010
:1003900075100000474B04225A6002F180429A62B5
:1003A0004FF040429A6293F8421001F0FE0141F092
:1003B000010183F8421093F8311001F0F00141F08F
:1003C000010183F831104FF48071C3F8841001F1FA
:1003D0008041C3F8A810C3F8A82093F8C81001F012
:1003E000FE0141F0010183F8C81093F8B41001F048
:1003F000F00141F0010183F8B4104FF40071C3F82B
:10040000841001F18041C3F8A810C3F8A82093F824
:10041000C91001F0FE0141F0010183F8C91093F801
:10042000B41001F00F0141F0100183F8B410102155
:10043000596001F1804199629A6293F8441001F089
:10044000FE0141F0010183F8441093F8321001F0ED
:10045000F00141F0010183F832102021596001F1CF
:10046000804199629A6293F8451001F0FE0141F0D3
:10047000010183F8451093F8321001F00F0141F0AB
:10048000100183F832104021596001F180419962D6
:100490009A6293F8462002F0FE0242F0010283F8CD
:1004A000462093F8332002F0F00242F0010283F874
:1004B0003320704700800041044A136A43F08003F0
:1004C00013624122024BC3F820217047000800400C
:1004D000001C004008B5054B9847054B9847002283
:1004E00004490548054B984708BD00BFB904000002
:1004F00095030000001C0043F4030020150D0000CC
:1005000008B5044A936943F080039361024B98470E
:1005100008BD00BF00080040790D0000024A1369C1
:1005200043F04003136170470008004008B5034BD7
:10053000984703490348044B984708BD1D05000030
:1005400000400041D0030020990D0000294B4FF4DA
:1005500080725A6002F1804202F500329A62264AA5
:100560009A6293F8482002F0FB0283F8482093F83F
:10057000482002F0FE0242F0010283F8482093F87E
:10058000342002F0F00242F0020283F834204FF4EB
:1005900000725A619A6002F180429A624FF04041C3
:1005A000996293F8492002F0FE0242F0010283F8BA
:1005B000492093F8342002F00F0242F0200283F821
:1005C00034204FF400625A619A6002F180429A62CC
:1005D000996293F84B2002F0FE0242F0010283F888
:1005E0004B2093F8352002F00F0242F0200283F8EE
:1005F0003520704700800041000002C0064B4122B8
:10060000C3F89C204322C3F88C20044A536943F466
:1006100080535361704700BF001C00400008004039
:1006200008B5044B984704490448054B9847054BC7
:10063000984708BDFD0500000030004088040020F8
:10064000AD0E00004D050000064B4122C3F8DC2032
:100650004322C3F88C20044A936943F400739361E6
:10066000704700BF001C004000080040104B93F88A
:100670004C2002F0FE0242F0010283F84C2093F875
:10068000362002F0F00242F0020283F8362093F89E
:100690004D2002F0FE0242F0010283F84D2093F853
:1006A000362002F00F0242F0200283F83620704715
:1006B0000080004110B582B0064B9847002300939C
:1006C0001023054A05490648064CA047064B9847A3
:1006D00002B010BD49060000840000200020014146
:1006E000FC030020091200006D060000164B93F871
:1006F000572002F0FB0283F8572093F8572002F0AE
:10070000FE0242F0010283F8572093F83B2002F0EA
:100710000F0242F0300283F83B2093F8562002F09B
:10072000FB0283F8562093F8562002F0FE0242F0B6
:10073000010283F8562093F83B2002F0F00242F0C9
:10074000030283F83B20704700800041064B4122A2
:10075000C3F80C214322C3F88C20044A136A43F0E7
:1007600002031362704700BF001C004000080040F5
:1007700008B5044B984704490448054B9847054B76
:10078000984708BD4D070000000400434C040020BA
:10079000410E0000ED06000008B50248024B9847E4
:1007A00008BD00BF10E000E0650D0000024AD369FB
:1007B00043F48063D36170470008004008B5034BE1
:1007C000984703490348044B984708BDAD0700000C
:1007D00000280042EC030020810E00001E4B4FF069
:1007E00080729A604FF0804199621C4898625A6109
:1007F00093F8582002F0FB0283F8582093F8582011
:1008000002F0FE0242F0010283F8582093F83C20E7
:1008100002F0F00242F0070283F83C204FF0007231
:100820009A6099620E4999625A6193F8592002F0D0
:10083000FB0283F8592093F8592002F0FE0242F09F
:10084000010283F8592093F83C2002F00F0242F095
:10085000700283F83C20704700800041000100C016
:10086000000200C04122074BC3F8A820A3F5A05303
:100870001A6942F480621A619A6942F001029A612F
:10088000704700BF001C004008B5034B9847034B5E
:100890009847034B984708BD65080000F91400000D
:1008A000DD070000024A536943F4807353617047C7
:1008B0000008004008B5064B98474822054901202A
:1008C000054B98470548064B0360064B984708BD03
:1008D000A5080000684D000045180000F80300203E
:1008E000002000405D3F00002DE9F047E34B9847B2
:1008F000E34B01229A60E34999624FF040409862CD
:100900005A6193F8402002F0FB0283F8402093F8EC
:10091000402002F0FE0283F8402002229A6001315A
:10092000996298625A6193F8412002F0FB0283F8C1
:10093000412093F8412002F0FE0283F841204FF05D
:100940008009C3F80490D04A9A62D049996293F81A
:10095000472002F0FB0283F8472093F8472002F07B
:10096000FE0283F847204FF40048C3F80480DFF804
:1009700050C3C3F828C0996293F84F2002F0FB02DD
:1009800083F84F2093F84F2002F0FE0283F84F20A7
:100990004FF4803EC3F804E0BD4A9A62BD4F9F62A7
:1009A00093F8504004F0FB0483F8504093F8504013
:1009B00004F0FE0483F850404FF400365E609A6203
:1009C000B54D9D6293F8514004F0FB0483F851400B
:1009D00093F8514004F0FE0483F851404FF4802412
:1009E0005C609A62AD4C9C6293F8524004F0FB0448
:1009F00083F8524093F8524004F0FE0483F85240CA
:100A00004FF400245C609A62A54C9C6293F85340BA
:100A100004F0FB0483F8534093F8534004F0FE04C1
:100A200083F853404FF480145C609A629D4C9C6242
:100A300093F8544004F0FB0483F8544093F8544076
:100A400004F0FE0483F854404FF400145C609A6292
:100A5000954C9C6293F8554004F0FB0483F8554094
:100A600093F8554004F0FE0483F855404FF00064BD
:100A70005C619C604FF080449C62DFF848A2C3F840
:100A800028A093F85BA00AF0FE0A83F85BA04FF061
:100A9000100AC3F884A00AF1804A0AF5003AC3F8A4
:100AA000A8A0C3F8A81093F8C4A00AF0FB0A83F822
:100AB000C4A093F8C4A00AF0FE0A83F8C4A04FF0C3
:100AC000200AC3F884A00AF1804A0AF5003AC3F864
:100AD000A8A0C3F8A81093F8C5A00AF0FB0A83F8F1
:100AE000C5A093F8C5A00AF0FE0A83F8C5A04FF090
:100AF000400AC3F898A0C3F888A00AF1804AC3F856
:100B0000A8A0C3F8A80093F8C6A00AF0FE0A83F8CC
:100B1000C6A0C3F89490C3F8889009F18049C3F83F
:100B2000A890C3F8A80093F8C70000F0FE0083F86F
:100B3000C7004FF48050C3F8840000F1804000F5F6
:100B40000030C3F8A800C3F8A81093F8CC0000F058
:100B5000FB0083F8CC0093F8CC0000F0FE0083F893
:100B6000CC004FF40050C3F884005048C3F8A800EC
:100B7000C3F8A81093F8CD0000F0FB0083F8CD0077
:100B800093F8CD0000F0FE0083F8CD004FF48040D4
:100B9000C3F884004648C3F8A800C3F8A81093F827
:100BA000CE0000F0FB0083F8CE0093F8CE0000F0FA
:100BB000FE0083F8CE00C3F88480C3F8A8C0C3F851
:100BC000A81093F8CF1001F0FB0183F8CF1093F831
:100BD000CF1001F0FE0183F8CF10C3F884E0C3F812
:100BE000A820C3F8A87093F8D01001F0FB0183F897
:100BF000D01093F8D01001F0FE0183F8D010C3F8A4
:100C00008460C3F8A820C3F8A85093F8D11001F06D
:100C1000FB0183F8D11093F8D11001F0FE0183F8A5
:100C2000D1104FF48001C3F89410C3F88810C3F8B2
:100C3000A8402049C3F8A81093F8D61001F0FE018F
:100C400083F8D6104FF40001C3F88410C3F8A8202D
:100C500002F100428032C3F8A82093F8D72002F0B6
:100C6000FB0283F8D72093F8D72002F0FE0283F826
:100C7000D720114B9847114B984725E0ED1B0000FA
:100C8000008000410100004080000240000002C0DE
:100C900000000240010002C0020002C0040002C0C5
:100CA000080002C0100002C0200002C00020024064
:100CB00000400240400000C0D504000001050000D3
:100CC00000800240000800C0094B9847094B984734
:100CD000094B9847094B9847094B9847094B984748
:100CE000094B9847094B9847094B9847BDE8F0874F
:100CF0002D0500006503000021060000B506000078
:100D00007107000099070000BD0700008908000076
:100D1000B508000038B50C46054660B149B1012060
:100D200039220649064B984721462846054B9847E5
:100D300038BD0020F4E70020F2E700BF844D00003A
:100D400045180000B51B0000EFF31083036072B676
:100D5000BFF35F8F7047BFF35F8F036883F3108823
:100D60007047000008B5024B1860024B984708BD59
:100D700094000020412C000008B5014B984708BDA5
:100D80002D1C000008B5436903B1984708BD08B59C
:100D9000836903B1984708BD38B50D46044698B13C
:100DA00081B1012038220949094B9847294620463C
:100DB000084B9847034618B9074A2260074A626001
:100DC000184638BD0020EDE70020EBE7A04D0000FD
:100DD000451800003D1D0000850D00008F0D00002E
:100DE00010B584B00389ADF80430144602924FF474
:100DF0000043ADF80630039101A91438034B98471E
:100E000010B9204604B010BD0446FAE7B126000030
:100E100010B584B00389ADF804301446029248F24C
:100E20000103ADF80630039101A91438034B98472C
:100E300010B9204604B010BD0446FAE7B126000000
:100E400038B50D4604465E220849003018BF01201F
:100E5000074B984729462046064B9847034618B942
:100E6000054AA261054A6261184638BDB84D0000C6
:100E70004518000081260000110E0000E10D000061
:100E800038B50D46044629220549003018BF012017
:100E9000044B984729462046034B984738BD00BF6E
:100EA000D44D0000451800004D2C000038B50D460B
:100EB0000446C0B1A9B1012040220C490C4B98470F
:100EC000204640F8045F29460A4B9847002807DB74
:100ED0004FF40043A382084B2361084BE3600020DA
:100EE00038BD0020E8E70020E6E700BFF04D000035
:100EF00045180000B1290000810F0000450F0000D7
:100F000030B585B00C46054698B181B10120B322B9
:100F100009490A4B98472368019363680293A368C1
:100F2000039301A9281D064B984705B030BD00204A
:100F3000EDE70020EBE700BFF04D00004518000092
:100F40002D2B000070B584B00E4615460446A32232
:100F50000849003018BF0120074B9847002302932F
:100F60000196039501A9A4F10C00044B984704B025
:100F700070BD00BFF04D000045180000010F0000DB
:100F800070B584B00E4615460446872208490030E5
:100F900018BF0120074B9847029600230193039541
:100FA00001A9A4F10C00044B984704B070BD00BF28
:100FB000F04D000045180000010F0000F8B507686B
:100FC00017B13C4600260BE00E4B9847F8BDA568CC
:100FD0002B449B1A01338D68AB4209D22646246804
:100FE00034B163689342F2D8A5689B1A2B44F2E7A8
:100FF000BC4203D03046044B9847F8BD014B98479C
:10100000F8BD00BF611800008D180000F8B54469F4
:10101000066901360661037E13F0010F05D1037ED8
:1010200013F0020F01D1054609E0037E43F00203ED
:101030000376F8BD6F69E368204698473C469CB14B
:101040006368F31AA26893420ED305F11407384679
:10105000064B9847237C012BECD166603246214633
:101060003846034B9847E5E7F8BD00BFD5180000A8
:10107000BD0F000038B50D46044680B169B10120AE
:101080003B220849084B984729462046074B98477A
:1010900000202061064B236038BD0020F0E70020CF
:1010A000EEE700BF0C4E000045180000991F00003D
:1010B0000D10000008B500238362C3691BB1A0F1C5
:1010C00008021046984708BD08B500238362436AAA
:1010D0001BB1A0F108021046984708BD38B5044678
:1010E000A0F108052C30034B9847236A0BB1284622
:1010F000984738BD7119000070B50E461546044674
:10110000D8B1E1B1EAB9002040F23B120F49104BCF
:101110009847B4F84420B4F84C309A4213D1A664EE
:10112000A4F84C500023A4F844300123236304F1B5
:101130000800084B9847284670BD0020E4E70020CF
:10114000E2E70120E0E76FF01B0070BD244E0000D5
:10115000451800006F26000010B50446838FB0F8D4
:101160004420934209D0026C591C8187D15C044B06
:1011700098472046034B984710BD034B984710BD36
:10118000692600006F260000772600002DE9F04157
:1011900082B0884616460546A0B1A9B1B2B9002072
:1011A0004FF4AC721249134B984701A8124B984761
:1011B00034352846114B9847074601A8104B9847ED
:1011C00000240BE00020EBE70020E9E70120E7E73F
:1011D0000134A4B2414428460A4B98472146A7420D
:1011E00001D9B442F4D3204602B0BDE8F08100BF7B
:1011F000244E000045180000490D0000B119000000
:10120000570D000029190000F8B50D4616461F4677
:10121000044618B321B32AB333BB00203A22154940
:10122000154B98473A46314604F13400134B984722
:10123000E0B9294604F10800114B9847034658B914
:10124000104A6260104A2260104AA260104AE260AE
:10125000104A2261104A62611846F8BD0020DDE79D
:101260000020DBE70020D9E70120D7E76FF00C036F
:10127000F2E700BF244E000045180000E51800000A
:10128000E52500008D110000F91000005911000043
:10129000DD100000B5100000C91000000023032B72
:1012A00021DC134A02EB4312517881421DD010B465
:1012B00009E001335BB2032B0FDC0D4A02EB431252
:1012C000517881420BD05A01094CA25C002AF0D11E
:1012D00000F00F028A42ECD101E04FF0FF331846D4
:1012E0005DF8044B70474FF0FF331846704700BF5E
:1012F000980000200020704738B504460D46094B81
:101300009847094B03EB40139B78032B01D0002037
:1013100038BD054B03EB40108369294620469847AA
:1013200038BD00BF9D120000980000202DE9F0415B
:1013300084B007460D469046484B98470446484EB1
:1013400006EB4016002D4FD1454A43010020F070B6
:10135000D35C7BB1424B03EB441301229A70404BA8
:1013600003EB4414E3694246E1783846984704B0F9
:10137000BDE8F081B37896F90C40032B08D0F369EF
:1013800006F10C020021707898470223B370EEE753
:10139000F36906F10C0201217078984770B10523BA
:1013A000B3700223F370002C06DB707840F08000ED
:1013B00001212C4B9847DAE77078F9E70423B370E2
:1013C000737800220192029294420ADB43F0800378
:1013D0008DF80C3001238DF80D3001A8224B984771
:1013E000C5E703F00F03F3E7012D0AD0022D1CD04F
:1013F000032D2AD01A4B03EB401306229A70DA70A1
:10140000ADE7174A4301D1180220C870D35C2BB155
:10141000134B03EB441305229A70A0E70B46987018
:10142000002138460F4B984799E70D4A4301D118E0
:101430000420C870D35C2BB1094B03EB4413012289
:101440009A708CE702238B7091E7054B03EB4013F6
:1014500000229A700522DA7081E700BF9D12000019
:1014600098000020693B0000253D00002DE9F04177
:1014700005461D4B98470646440104F108031B4CE2
:101480001C44043421462846194B9847C0B208280A
:1014900009D001212846174CA047012145F08000C2
:1014A000A047BDE8F08100212846124FB84745F01B
:1014B000800800214046B8470C4B03EB461301223D
:1014C0009A705B6921462846984708B1BDE8F081CB
:1014D000064B03EB46160523B37001212846B84797
:1014E00001214046B847F1E79D1200009800002016
:1014F000B13C0000693B000010B5124B9847002832
:101500001EDB802200211048104B984700220AE081
:101510000D4B03EB4213FF2159700D49596199613D
:10152000D9610132D2B2032AF2D90A4900200A4C09
:10153000A0470A490120A04709490220A0470020EE
:1015400010BD00BF6135000098000020574D00001D
:10155000F51200006D140000FD3E0000F9120000BD
:101560002D13000008B5014B984708BDD93E000077
:1015700008B5014B984708BD2936000008B5014B56
:10158000984708BD9936000008B5014B984708BD3B
:10159000AB360000F8B506460C4617460F4B984789
:1015A000002814DAFF200D4B9847051E12DB3A463F
:1015B000214630460A4B984700280DDB094B68014D
:1015C0001A18567004F003041C540020F8BD6FF084
:1015D0001300F8BD6FF01400F8BD00BF9D120000AD
:1015E000B93600009800002008B5024600210846E0
:1015F000014B984708BD00BF9515000038B505465A
:10160000064B9847041E07DB2846054B98470548BC
:1016100000EB4410FF23437038BD00BF9D12000053
:10162000D93700009800002038B505460E4B984782
:10163000041E16DB63010D4AD35C53B902220B4B27
:1016400003EB44139A702846094B9847002802DBA5
:1016500038BD0122F3E7054B03EB44140023A370CC
:1016600038BD6FF01100F3E79D12000098000020D4
:10167000993800002DE9F04786B00546067A3046D5
:101680003C4B98476C7A003418BF0124D5F804808D
:10169000071E69DBF60904A8374B9847374B03EB65
:1016A00047139B788DF817309DF81730DBB2012B6C
:1016B0000CD004A8324B98479DF81730DBB2052BAD
:1016C00025D0062B53D023B301201DE0DFF8ACA0BA
:1016D0004FEA47190AEB090303229A7004A8284B22
:1016E00098471AF80930BBB12B7A2A680192CDF8D5
:1016F0000880002E35D043F080038DF80C308DF833
:101700000D4001A81F4B984706B0BDE8F0870220A6
:10171000FAE76FF01200F7E7184B03EB47139C7CD6
:10172000DB7C04EB0324A4B24CB9144B03EB471746
:101730000423BB704FF0000801242646D4E70F4B6A
:1017400003EB471797F90C30DE0FA04500D9A046F0
:10175000002B01DB0024C7E7A0452CBF0024012497
:10176000C2E703F00F03C8E76FF01100CCE76FF09A
:101770000F00C9E79D120000490D000098000020ED
:10178000570D0000253D000038B5044639B1012948
:1017900026D00221154B98470346184638BD144BF6
:1017A0009847051E19DB02212046104B9847034637
:1017B0000028F2D0002120460C4B9847031EECDB9A
:1017C0000C4B03EB451301229A700321D970DB699E
:1017D0000022204698470023DFE76FF01103DCE783
:1017E0000121024B98470346D7E700BF693B000041
:1017F0009D1200009800002038B50D4614460E4B8F
:1018000098473CB1002815DB012D0AD025B1022DE7
:101810000CD038BD094CF5E7094B03EB401044618F
:1018200038BD074B03EB4010846138BD044B03EB1C
:101830004010C46138BD00BF9D120000F5120000C9
:101840009800002000B900BE704703681BB18B42AE
:1018500003D01B68FAE700207047012070470000A2
:1018600038B504460D46064B984780F001003922F2
:101870000449C0B2044B984723682B60256038BDEB
:101880004B180000444E00004518000003680B6030
:101890000160704770B505460E4604680A4B9847CC
:1018A00080F001004F220949C0B2094B98472B68CC
:1018B0001BB92E60336070BD1C462368002BFBD122
:1018C0002660336070BD00BF4B180000444E00001E
:1018D0004518000003681BB11A680260184670477B
:1018E0000020704770B50E461546044678B181B1A8
:1018F0008AB9002028220A490A4B98476B1E1D42CC
:101900000BD163600020A060E060266070BD002005
:10191000F0E70020EEE70120ECE76FF00C0070BD6F
:10192000644E00004518000038B50D460446A8B1C5
:1019300091B1012040220C490C4B9847E268A36802
:101940009A420DD0226861680B40D35C2B70A3686B
:101950000133A360002038BD0020EBE70020E9E759
:101960006FF0090038BD00BF644E0000451800004C
:1019700038B50D46044651220B49003018BF0120EE
:101980000A4B98472268E36861680B40D554E368C6
:10199000A2689A1A61688A4201D9591AA160013372
:1019A000E360002038BD00BF644E00004518000011
:1019B00010B5044667220549003018BF0120044BCA
:1019C0009847E068A368C01A10BD00BF644E0000CD
:1019D0004518000000F13D40A0F5E050C0F387201D
:1019E0007047000010B4604B984200F09C805F4B41
:1019F000984200F0A8800022036B13F0010F1BD166
:101A0000036B13F0030FFBD1038813F0020F0DD00B
:101A100003889BB223F002039BB20380036B13F095
:101A2000030FFBD1036B13F0020FFBD101230380E3
:101A3000036B13F0030FFBD1036B13F0010FFBD10A
:101A4000A0F8482016234A4A03FB01239B88C38041
:101A5000036BC3F30B03002BFAD11623444A03FB99
:101A600001239B790372036BC3F30B03002BFAD1A1
:101A700016233F4A03FB0123DA7982701B89838096
:101A8000036BC3F30B03002BFAD11623384A03FB75
:101A900001239B7A8372036BC3F30B03002BFAD1F0
:101AA0001623334A03FB0123DB7AC372036BC3F3B0
:101AB0000B03002BFAD116232D4A03FB01239B892C
:101AC0008381036B13F0800FFBD11623284A03FB9D
:101AD0000123DB89C381036B13F4807FFBD11623C1
:101AE000234A03FB01231B8A0382036B13F4007F49
:101AF000FBD116231E4A03FB01235B8A4382036B3F
:101B000013F4806FFBD11622194B02FB01310B7DC0
:101B1000C3704B880380036B13F0030FFBD10020CD
:101B20005DF8044B70474FF080131B685A0912028E
:101B300002F4E0621C0A240104F070042243C3F39F
:101B400082031A4358E74FF080131B68DA0C120225
:101B500002F4E0629C0D240104F070042243C3F3FC
:101B600002431A4348E700BF001C00430020004323
:101B7000884E000008B50B4B984700233BB18822E4
:101B800009490020094B98470023184608BD162232
:101B900002FB03F206498A5C9042F6D00133DBB2C5
:101BA000ECE700BFD5190000A04E0000451800006A
:101BB000884E000038B50C460546D922074900304A
:101BC00018BF0120064B98472C602046054B9847CC
:101BD00001462046044B984738BD00BFA04E000088
:101BE00045180000751B0000E519000010B5094AF2
:101BF00013889BB21380084B9847084B9847084BB3
:101C000098470420074CA047074B984740F6FB70C5
:101C1000A04710BD00400041E11D0000011E000072
:101C2000051D0000911C0000051E0000002308E0B7
:101C3000154AD05C03F14801144A42F821000133EF
:101C4000DBB2422BF4D900231F2B1BD810B40E4A51
:101C500002EB4301B1F844400C49181D41F83040F3
:101C600002EB830292F8842001EBC0014A71D24357
:101C7000D2B20A710133DBB21F2BE8D900205DF824
:101C8000044B704700207047B84E000000E0004150
:101C900010F0010F08D0174A174B1A62164B5A68FA
:101CA00043F6FD731A42F9D110F0020F08D0134A1F
:101CB000114B5A62104B5A6843F6FD731A42F9D120
:101CC00010F0040F08D00E4A0B4B9A620A4B5A6868
:101CD00043F6FD731A42F9D110F0080F08D0084AF4
:101CE000054BDA62044B5A6843F6FD731A42F9D188
:101CF000704700BF08290100001C004006290100B0
:101D0000042901000122014B5A717047000800406C
:101D100008B503691A8A12F0010F05D001221A8250
:101D2000036853B1984708BD1A8A92B22AB140F2AB
:101D30005E221A82436803B1984708BD38B50C4645
:101D4000054650B3174B994229D000204B22164923
:101D5000164B98472C612388C3F30D0323F0C0036F
:101D60009BB22380124B1D60124B4FF00051C3F801
:101D70008010BFF34F8FBFF36F8F4FF08042C3F8D7
:101D80008020BFF34F8FBFF36F8FC3F88011C3F86C
:101D9000802119601A60002038BD0020D6E701209C
:101DA000D4E700BF00400041BC4F000045180000D0
:101DB0001801002000E100E008B5024B1868024B52
:101DC000984708BD18010020111D000008B5024BFE
:101DD0001868024B984708BD18010020111D00002B
:101DE000064B42F28A029A8200229A75DA75D96904
:101DF00001F47C51D9611A74704700BF001400408F
:101E000070470000474A136A23F00F0343F00403AE
:101E10001362444B5A6843F6FD731A42F9D1414BA1
:101E20005B6813F0040FFAD13F4B00221A773F4A48
:101E30009A623D4B93F82C3013F0100FF9D1002229
:101E4000394B83F82020384B93F82C3013F0040FD3
:101E5000F9D10222344B1A77334B93F82C3013F01C
:101E6000020FF9D1304B5A6A5A622F4B93F82C303B
:101E700013F0080FF9D198222B4B83F820202A4B1E
:101E800093F82C3013F0040FF9D14222254BC3F8FC
:101E90008820274AA3F540639A64234B1B6D13F0F7
:101EA000060FFAD1204B4FF40162DA64022283F864
:101EB00044201D4B1B6D13F0020FFAD11A4B93F8FF
:101EC000203013F0010F27D0174B1B6903F4106368
:101ED000B3F5106FF8D1144B5B6D13F0010F04D103
:101EE000114B5B6D13F0020FF5D00E4B5B68002BAE
:101EF000FBD10C4A136A23F00F0343F0080313626B
:101F0000084B5A6843F6FD731A42F9D1054B5B68DA
:101F100013F0040FFAD17047034B1B6913F4807F51
:101F2000FAD0D8E7001C0040001000400000010477
:101F3000500E010000B583B00D4B9B78DBB20193CE
:101F4000019B13F0020F06D00A4B1B681BB1084A15
:101F50005068984709E0019B13F0010F05D0054B2D
:101F60005B6813B1024A5068984703B05DF804FB00
:101F700000000241A0040020C3689B8913F4807F05
:101F800009D010B50446036803B19847E3684FF4DD
:101F900080729A8110BD704738B50D4604463022D4
:101FA0001449003018BF0120134B9847E560012306
:101FB0002B802A6948F203031A42FAD1E3681A69AE
:101FC00012F0010FFBD148F280021A80196948F221
:101FD00003021142FAD1E26820231362136913F05D
:101FE000600FFBD1E3684FF480725A81034B1C6091
:101FF000002038BDDC4F0000451800001C01002007
:102000000020704708B5024B1868024B984708BD7E
:102010001C010020791F000070B487B006466C4692
:102020000C4D0FCD0FC495E8030084E80300002099
:1020300005280AD806AB03EB800353F8183CB342DB
:1020400001D00130F4E7C0B200E0002007B070BC5E
:10205000704700BFF44F000010B58469237E13F071
:10206000010F03D0A37D13F0010F12D1237E13F0D3
:10207000020F03D0A37D13F0020F0FD1237E13F0C4
:10208000040F15D0638B03F0370363B1FF23638321
:1020900010BD012323750368984710BD02232375E3
:1020A0008368984710BD4368A16AC9B2984710BDBC
:1020B000237EDB0900D110BD80232376C3689847B7
:1020C000638B9BB26383F6E7034B984200D0704763
:1020D000024B1960FBE700BF0020014120010020F6
:1020E00008B5044B98478000C0B22E3000F0FE00C7
:1020F00008BD00BF1920000008B50C4B984700230D
:1021000043B140F26B220A4900200A4B9847002352
:10211000184608BD03EB4302D100074A0A44127E69
:102120009042F5D00133DBB2EAE700BF192000008E
:102130006050000045180000F44F000038B5044618
:102140003C4B9847E36913F0010F22D100EB4003A9
:10215000DA00394B1344DA6902F01C02E36913F028
:10216000030FFBD1236813F0020F0BD0236823F079
:1021700002032360E36913F0030FFBD1E36913F05B
:10218000020FFBD142F001022260E36913F0030F5A
:10219000FBD1E36913F0010FFBD100EB4003DA0040
:1021A000254B1344DB692360E36913F0030FFBD174
:1021B00000EB4003DA00204B13441B6A6360E369C1
:1021C00013F01F0FFBD142000244D1001A4B0B4405
:1021D0005A6AA260DB6913F4005F0AD113F4C04F9E
:1021E00007D100EB4003DA00134B13441B8DA3818E
:1021F0000FE042000244D1000F4B0B44198DA2891D
:1022000061F30C02A28193F82A20A38962F34F3371
:10221000A381094A43001D18E9000D46114491F8B5
:102220002B10A1732A4492F82C3084F8303000200F
:1022300038BD00BFF9200000F44F000008B50D4B79
:102240009847002343B140F2CE320B4900200B4B9C
:1022500098474FF0FF3008BD03EB4302D100084A16
:102260000A4492F83020904202D00133DBB2E9E711
:1022700058B208BD19200000605000004518000049
:10228000F44F000038B505460C460846334B9847D6
:10229000C0B2E36913F0010F22D100EB4003DA0072
:1022A0002F4B13445A6B02F01C02E36913F0030F27
:1022B000FBD1236813F0020F0BD0236823F0020335
:1022C0002360E36913F0030FFBD1E36913F0020FFE
:1022D000FBD142F001022260E36913F0030FFBD14E
:1022E000E36913F0010FFBD100EB4003DA001C4B54
:1022F00013445B6B2360E36913F0030FFBD100EB26
:102300004003DA00164B13449B6B6360E36913F0E0
:10231000040FFBD142000244D100114B0B44DA6B95
:10232000E26093F8373003F00303AB81012B94BFD5
:1023300000230123626A22F4804242EA833363620B
:10234000E36913F0040FFBD100EB4000C200044B23
:102350001344B3F84230EB81002038BD3D22000029
:10236000F44F000070B5054604692668C6F3C066E0
:1023700040F2CD529949003018BF0120984B984740
:102380006B68012B57D0636823F480236360E36993
:1023900013F0040FFBD12B8813F4806F56D06A889A
:1023A00012F0010F04D06A8892B242F480626A800F
:1023B00040F2FE7202EA4302E36913F0040FFBD11C
:1023C000636A03F48043134343F400436362E369A5
:1023D00013F0040FFBD12E694FF6FF72337EDBB290
:1023E0001846511E1AB10A4613F0030FF6D02268A0
:1023F000C2F3C062E36913F0040FFBD1638B9BB29D
:1024000010F0010F00F09C8013F0020F32D0012277
:1024100022766A8892B242F480526A806A8892B2C6
:1024200022F4807292B26A8013F0010F00F0D18022
:102430006FF0040070BD002EA5D0636843F48023C4
:102440006360E36913F0040FFBD1A4E75B00DBB228
:102450006A8802F001021A43E36913F0040FFBD10A
:10246000636A03F4804313436362E36913F0040F68
:10247000FBD1B0E713F0040F1FD16B8813F4806F0A
:1024800039D02B881B125B0003F00602E36913F0BE
:10249000040FFBD1636A03F48043134343F0F10359
:1024A0006362E36913F0040FFBD16B889BB223F4E2
:1024B00080639BB26B80002070BD6B68002B04DDD5
:1024C0006B889BB243F480536B806B8813F4004F8E
:1024D00008D16B889BB223F480739BB26B806FF042
:1024E000010070BD636843F440336360E36913F037
:1024F000040FFBD1EDE7686898B96B8813F4004FBF
:1025000006D16B889BB223F480739BB26B8070BD45
:10251000636843F440336360E36913F0040FFBD155
:10252000EFE7AB681B78A362E36913F0040FFBD1FC
:10253000AB680133AB606B68013B6B60002070BD22
:1025400010F0020F48D0696800293DD013F0040F45
:102550003AD10139696001B9E2B1012918D06B683B
:102560004BB96B8813F4004F1DD16B889BB223F4D9
:1025700080739BB26B80AA68531CAB60E36913F055
:10258000040FFBD1A36A137002232376002070BDD1
:10259000002AE4D0636843F480236360E36913F0A6
:1025A000040FFBD1DBE7636823F480736360E369A6
:1025B00013F0040FFBD1636843F440336360E369B5
:1025C00013F0040FFBD1D0E7022323766FF0010054
:1025D00070BD6FF0030070BD002070BD6050000042
:1025E0004518000070B50C460646CB22184900304D
:1025F00018BF0120174B98472046174B98470546B0
:1026000008B1284670BDB46131462046134B984747
:102610002046134B9847002416E0410900F01F02A2
:10262000012393400F4A01F1200642F82630BFF300
:102630004F8FBFF36F8F01F1600642F8263042F8EA
:1026400021300130C0B20134032CE6D9D9E700BFF4
:1026500060500000451800003D210000C920000026
:10266000E120000000E100E083699962704783691E
:1026700001229A757047836902229A75704700009B
:1026800038B50D4604464FF4A8620649003018BF1D
:102690000120054B9847256129462046034B984762
:1026A00038BD00BF605000004518000085220000C2
:1026B0002DE9F04105460E460469DFF8A0824FF48B
:1026C000BF624146003018BF0120A24FB8472869B9
:1026D00040F2F9524146003018BF0120B84740F29D
:1026E000FA524146301C18BF0120B8476B8813F4DA
:1026F000807F40F02A8173889BB243F4807373809B
:1027000096E8070085E80700636843F48073636018
:10271000E36913F0040FFBD128468F4B984703461B
:10272000002800F0B0806A8892B222F4807292B2DF
:102730006A80BDE8F0816FF00400B7E0738813F49D
:10274000004F07D16B889BB223F480739BB26B80E0
:10275000BDE8F081636843F440336360E36913F0DC
:10276000040FFBD1EEE713F0040F1FD16B8813F4B5
:10277000806F39D02B881B125B0003F00602E369DF
:1027800013F0040FFBD1636A03F48043134343F057
:10279000F1036362E36913F0040FFBD16B889BB212
:1027A00023F480639BB26B8000206BE06B68002B8E
:1027B00004DD6B889BB243F480536B806B8813F409
:1027C000004F08D16B889BB223F480739BB26B805F
:1027D0006FF0010056E0636843F440336360E369DF
:1027E00013F0040FFBD1EDE7686898B96B8813F418
:1027F000004F06D16B889BB223F480739BB26B8031
:1028000040E0636843F440336360E36913F0040F0E
:10281000FBD1EFE7AB681B78A362E36913F0040F09
:10282000FBD1AB680133AB606B68013B6B60002090
:1028300028E017F0020F00F083806968002977D044
:1028400013F0040F74D10139696009B9002A55D019
:10285000012951D06B684BB96B8813F4004F56D1E6
:102860006B889BB223F480739BB26B80AA68531C65
:10287000AB60E36913F0040FFBD1A36A137002236A
:102880002376002003466A8812F4807F5AD0286994
:102890004FF6FF72037EDBB21F46511E002A3FF443
:1028A0004AAF0A4613F0030FF4D0002000287FF44B
:1028B00045AF2268C2F3C062E36913F0040FFBD195
:1028C000638B9BB217F0010FB3D013F0020F3FF4EC
:1028D0004AAF012222766A8892B242F480526A801C
:1028E0006A8892B222F4807292B26A8013F0010F69
:1028F00023D06FF00400C5E7002AABD0636843F42F
:1029000080236360E36913F0040FFBD1A2E76368DF
:1029100023F480736360E36913F0040FFBD16368F1
:1029200043F440336360E36913F0040FFBD197E78E
:10293000022323766FF00100A4E76FF00300A1E704
:1029400000209FE71846BDE8F0816FF00500BDE864
:10295000F08100BF451800006523000060500000B2
:1029600008B5024B1868024B984708BD20010020AB
:102970005920000008B5024B1868024B984708BD63
:10298000200100205920000008B5024B1868024BB6
:10299000984708BD200100205920000008B5024BCF
:1029A0001868024B984708BD2001002059200000FC
:1029B00070B506460C460846584B98470023002B36
:1029C00068D00025002E70D0002C6CD0012040F67D
:1029D00084125349534B9847002D00F09B80E369C4
:1029E00013F0010F1DD12B6803F01C02E36913F0F3
:1029F000030FFBD1236813F0020F0BD0236823F0E1
:102A000002032360E36913F0030FFBD1E36913F0C2
:102A1000020FFBD142F001022260E36913F0030FC1
:102A2000FBD1E36913F0010FFBD134602B6803F095
:102A30001C03082B3BD0002C68D0002D64D0012053
:102A400040F631123649374B98472B6823F481738F
:102A500023F001032360E36913F0030FFBD16B68DC
:102A600023F4383323F4107343F400336360E369D1
:102A700013F0170FFBD12B7B23736B7B84F8303063
:102A80006B6813F0070F43D101233371EB89F38097
:102A9000002070BD10B10133DBB290E703EB0315EA
:102AA000214B1D448EE7002091E700208FE74CB3B7
:102AB00035B3012040F6451219491A4B98472B6847
:102AC00023F4817323F001032360E36913F0030F00
:102AD000FBD16B6823F4083323F4107343F4003301
:102AE00043F410736360E36913F0170FFBD1AB6815
:102AF00063626B7B84F83030E369002BFCD1BFE765
:102B00000020D7E70020D5E7002099E7002097E7CD
:102B10000223BAE76FF00C0070BD00BF192000005F
:102B200060500000451800004C500000F0B587B020
:102B300007460D4604680B6801934B680293002317
:102B4000039304930679B8B1A4B1012040F6E822BA
:102B50003449354B9847E36913F0070F5FD1E369B8
:102B600013F0030FFBD1236813F0020F1ED16FF097
:102B7000130052E01846E9E70020E7E700222BE0C7
:102B800091F801E040EA0E200231019101320392F6
:102B9000A06213F0800F32D10020002837DB0398A9
:102BA000AB68984202D3049A934230D9237EDBB2B9
:102BB00013F0040FE2D0A16A029A4AB1501C0290AD
:102BC0001170012E04D9901C0290C1F3072151709D
:102BD000049A013204920122002ADAD1039A04995C
:102BE0009142D6D3F88813F0010FD2D00199002971
:102BF000CCD0481C01900878012EC1D8C6E74FF60A
:102C0000FF736383802323766FF01200C5E7237E72
:102C100013F0030FFBD00323237607B0F0BD6FF052
:102C20000300FAE76050000045180000034B6FF006
:102C30007F425A6005221A60704700BF10E000E032
:102C400008B5014B984708BD2D2C000038B50C463F
:102C50000546C8B1B1B101203D220E490E4B98473F
:102C6000237813F0020F11D1237803F0BF032370F0
:102C7000237903F0FE032371002010B92C60202378
:102C80002B7138BD0020E7E70020E5E76FF010006A
:102C9000F3E700BF7C50000045180000002070479B
:102CA000144B1A68C2F34413C2F3822112F01F02BC
:102CB00003D01F2A02D1092200E009221BB11F2BD9
:102CC00002D1192300E0192319B1072902D10621E5
:102CD00000E0062143EA821343EA01334FF08242C7
:102CE0001385D37843F00303D370D37843F00C03F8
:102CF000D37070478400800038B5837C03F00F03E5
:102D0000C27C02F0070101290CD003F10802520134
:102D100002F182421021D1715B0103F1824383F8F9
:102D2000081138BD12F0400F0CD0C27C6FF3861230
:102D3000C27403F10802520102F182428021117132
:102D400040215171C27C6FF3C302C27409495A0118
:102D50008C180025A572A57608335B0103F1824328
:102D60006F24DC7102F1824282F808418B6E807C14
:102D7000984738BD2401002008B5837C03F00F0379
:102D8000202202FA01F1C9B25B0103F1824383F808
:102D90000811034B1B6F82680121807C984708BD96
:102DA0002401002038B5847CFF2C03D0C37C13F0B1
:102DB000400F00D138BDC27C6FF38612C274034A43
:102DC000156F82682046A847F4E700BF2401002061
:102DD00030B583B0847C194D2D88ADF80450FF2C9C
:102DE00022D004F00F03C47C14F0400F1CD0E9B1D2
:102DF00003F10804640104F18244802525710C4626
:102E000002A90C4414F8041C03F108056D0105F136
:102E10008245E97114F8041C5B0103F1824383F8D5
:102E200008111146064B984703B030BD03F1080462
:102E3000640104F1824440256571E0E7945000008C
:102E4000A52D000070B582B0837C03F00F03404ACB
:102E50009288ADF804203F4A02EB43120C46A9B316
:102E600003F10801490101F182410D78C5F3021512
:102E7000C17C01F0070602EB0412917AC9B2022D5F
:102E80002DD011F0020F49D0917A6FF34101917268
:102E900002AA111911F8045C03F10802520102F1AF
:102EA0008242D57111F8042C5B0103F1824383F84F
:102EB0000821012E4AD1C37C13F0400F46D0D90916
:102EC0008C4243D00022244B98473FE003F1080195
:102ED000490101F182410D7805F00705C8E711F0BD
:102EE000010FCED0917A6FF30001917202AA1119ED
:102EF00011F8045C03F10802520102F18242D5711B
:102F000011F8042C5B0103F1824383F808210422A9
:102F1000211C18BF0121104B984717E004EB430117
:102F20000C4A02EB01120021917202AA144414F817
:102F3000041C03F10802520102F18242D17114F81B
:102F4000042C5B0103F1824383F8082102B070BDB9
:102F50009450000024010020D12D000070B5002401
:102F600019E0114E06F16000A5002A1993001033F4
:102F70001844032104300D4B98472A199300334419
:102F8000FF2283F886202544AB001E44002386F8E8
:102F900087300134E4B2082CE3D9602200210248D2
:102FA000034B984770BD00BF24010020A52D0000F1
:102FB000574D00002DE9F0410546847C04F00F04D4
:102FC000524B03EB44130E4600294FD05869C0F30F
:102FD0000D002B8A40F2FF32934249D0013B1BB2D5
:102FE0000340EF7C07F0070736B104F108025201F5
:102FF00002F182420221D171A9680144A9606A6884
:10300000914245D292B28BB2D21A92B2EB7C13F0BB
:10301000200F2FD0B5F81080424500D890462B687D
:1030200042461944E8683A4B9847EA68374B03EB45
:1030300044131A61354B03EB44135A6968F30D02CC
:103040005A615A696FF39B325A613EB9012F5BD0C6
:103050004A22630103F1824383F8092108346401A1
:1030600004F1824480236371BDE8F0810020B0E761
:103070001BB2B5E7B2F5005F07D890462B6819443C
:10308000224B03EB44131961D4E74FF40058F5E7E2
:10309000EA7C12F0100F0FD0EB7C6FF30413EB748B
:1030A0001A4B03EB44135A696FF30D025A615A69C4
:1030B0006FF39B325A61C8E7012F0ED0640104F10F
:1030C00082444A2284F808212A8A93420CD00021A3
:1030D0002846104B9847BDE8F081640104F1824412
:1030E0004B2284F80821EFE7EB7C6FF38613EB7437
:1030F000064BDB6EA968A87C98470028B4D1EB7C0E
:1031000043F04003EB74E2E74E22A2E724010020E3
:10311000414D0000A52D00002DE9F84F0446857CA7
:1031200005F00F050F46002950D0684B03EB4513FF
:103130005B68C3F38D3A002F4BD0644B03EB451310
:103140005B68C3F30D09268A40F2FF339E4201D02B
:10315000013EB6B209EA060B94F8138008F007089E
:1031600037B105F108035B0103F182430122DA71F3
:10317000E37C13F0200F0ED0626862B192B2A068B7
:1031800083B2D21A92B223681844E168934500D200
:103190005A464F4B98476368F3B9E27C12F0100F20
:1031A0001AD0E37C03F0EF0343F02003E374E068FC
:1031B00046496A018B188850218A5A6861F39B320C
:1031C0005A605A686FF30D025A6044E04FF0000AEB
:1031D000B1E74FF00009B6E7EFB1228A93451AD262
:1031E000E37C6FF30413E374A3684B44A360B8F16A
:1031F000010F5DD06B0103F18243252283F8082182
:103200001DB9E2686D01314B5A5100212046314B06
:103210009847BDE8F88FA2685244A2609342E6D96D
:103220009BB291B25B1A9BB2E17C11F0200F24D0CB
:10323000268AB34200D81E46E1686B01234AD1506A
:10324000224B03EB45135A6866F39B325A605A6867
:103250006FF30D025A6047B9B8F1010F2FD0252244
:103260006B0103F1824383F8092108356D0105F1F3
:10327000824540232B71BDE8F88F218A8B420AD901
:10328000B3F5005F0FD823EA060623681A446B01E2
:103290000E49CA50D4E78B4208D2E17C41F02001AC
:1032A000E1741E46F1E74FF40056EEE71E46ECE7E8
:1032B0006B0103F182432D2283F80821A0E7034B21
:1032C00003EB451300229A762D22C9E72401002042
:1032D000414D0000A52D000070B54FF082431D8CBC
:1032E000ADB20DB10024DAE0998B1B8B9BB20B4081
:1032F00013F0040F10D113F4007F18D113F0800FD6
:103300003CD113F0700F44D113F0080F63D113F0C8
:10331000010F75D1002307E004224FF082439A8306
:10332000874B1B6E98470123002BDBD070BD4FF0FD
:10333000824340F201229A839A8270221A830023E8
:10334000012B14D819467E4A02EB4312128902F06F
:103350000F02032A02D00133DBB2F1E7784B03EB13
:1033600041131989C1F30A1100221A8100E00021DA
:10337000734B5B6E032098470123D5E780224FF003
:1033800082439A836E4B5B6E002105209847012390
:10339000CAE74FF0824370229A839A8240F2012258
:1033A0001A83684B93F8203013F0010F0DD0654B52
:1033B0001B6903F41063B3F5106FF8D1604B5B6EBB
:1033C0000021022098470123AEE75E4B1B6913F4EE
:1033D000807FFAD0F2E74FF08243002483F8004167
:1033E00008229A8370229A8240F201221A83564B55
:1033F0009847534B5B6E214601209847012393E782
:103400004FF0824340F201229A839A8270221A83FB
:103410004B4B5B6E002104209847012384E713F097
:10342000100F09D113F0400F09D113F0200F34D041
:103430000021464B984730E0454B98472DE001214D
:10344000424B984729E013F0400F13D113F0080FB7
:1034500014D113F0020F15D1C27C02F00702012A29
:103460001BD113F0040F11D113F0100F15D0384BEE
:10347000984712E00121354B98470EE00121354B6A
:1034800098470AE00121344B984706E00021314B70
:10349000984702E000212D4B98470134E4B2082CF4
:1034A0003FF644AF264A02F16000A3001E19B100A6
:1034B0000E4610310144081D324492F88630FF2B2D
:1034C000EBD0837C03F00F0301229A401542E4D035
:1034D00003F10802520102F18242D2795B0103F149
:1034E000824393F809311340D7D0C27C02F04701E0
:1034F000012994D012F0800FA5D113F0200FC9D16B
:1035000013F0040F10D113F0010F11D1C27C02F09F
:103510000702012AC1D113F0080F0DD113F0100FCB
:10352000BBD00B4B9847B8E700210A4B9847B4E74C
:1035300001210A4B9847B0E70121064B9847ACE7B9
:1035400024010020001000405D2F0000792D0000B4
:10355000F92C0000452E0000B52F000019310000A5
:1035600000B583B000238DF805304FF082439B787F
:1035700013F0010F27D14FF082439B7813F0030F14
:10358000F9D14FF082431B7813F0020F11D04FF0A6
:103590008242137803F0FD0313704FF082439B784F
:1035A00013F0030FF9D14FF082439B7813F0020F11
:1035B000F9D101224FF082431A704FF082439B7879
:1035C00013F0030FF9D14FF082439B7813F0010FF2
:1035D000F9D1114B114A1A665A669A66DA661A6769
:1035E0000F4B98470F4B984704224FF082431A70B5
:1035F0004FF082439B7813F0030FF9D14FF08242D2
:10360000054B53629DF8053043F001031381002000
:1036100003B05DF804FB00BF240100209D2C0000D6
:103620005D2F0000A12C00004FF082439B7813F027
:10363000030F2BD14FF082439B7813F0030FF9D186
:103640004FF082431B78DBB213F0020F0AD143F034
:1036500002034FF0824213704FF082439B7813F0C5
:10366000030FF9D10B4B4FF480329A604FF40032C4
:103670009A604FF480229A604FF400229A6040F2E0
:103680008D224FF082431A83002070476FF01000A4
:10369000704700BF00E100E04FF0824213899BB207
:1036A00023F001039BB21381704740F080004FF07C
:1036B0008243987270470000F0B547B210F00F04D3
:1036C00005D0002F01DB254602E0A51C00E02546C1
:1036D0002E4601F003012346022C6AD805EB85052E
:1036E0004FEA850E3A4D754495F88650FF2D63D10B
:1036F000A9B91CB1002F01DB0234E4B204EB84044D
:10370000A500334C2C4494F88640FF2C57D103EB92
:103710004304A5002F4C2C44A468002C52D0002F49
:103720002EDB03EB4304A5002A4C2C44A468003490
:1037300018BF01244CB1002F2CDB03EB4304A50080
:10374000244C2C44248A94423FDB002F29DB03EBDA
:1037500043039C001F4B2344D3F808E01C4DB400E6
:10376000A719BB001F462B44C3F880E0A3F88420B0
:10377000013183F887103D4485F886000020F0BDB4
:1037800003EB4304A500134C2C44E468003418BF39
:103790000124CFE703EB4304A5000E4C2C44648ABC
:1037A000D1E703EB43039C000A4B2344D3F80CE01E
:1037B000D4E76FF01100F0BD6FF01300F0BD6FF0B3
:1037C0001300F0BD6FF01200F0BD6FF01200F0BDFD
:1037D00024010020945000002DE9F04146B2F10F81
:1037E00010F00F0405D0002E01DB234602E0A31CDD
:1037F00000E023461D4603EB8307BA001032234F37
:103800003A44171D022C2ED803EB83039A00204B59
:10381000134493F88630FF2B25D080460322384688
:103820001C4B984705EB85039A00194B134493F8FA
:10383000873003F00703012B17D0002E1DDB08F1A2
:103840000800400100F18240037803F0F8030370A0
:103850000F4AAB00581981001144002081F88700FD
:10386000FF2381F88630BDE8F08108F108004001AF
:1038700000F1824000230370EAE70834640104F198
:103880008244237803F08F032370E1E78401002052
:1038900024010020D12D0000F0B544B210F00F003B
:1038A00005D0002C01DB034602E0831C00E0034648
:1038B000194600F10802520102F182421278D2B296
:1038C000022800F23E8103EB83039D00A44B2B44AE
:1038D00093F88630FF2B00F03781A14B03EB4015A6
:1038E00001EB8107BE00334493F8873003F00703F0
:1038F000012B36D0002CC0F2C18012F0070F40F02F
:103900002C81974E8C006718BB001F46334493F8F8
:10391000873003F007031A4300F108035B0103F14A
:1039200082431A703E44B6F884208E4B03EA8233F9
:10393000B2F5007F00F2EA80B2F5807F00F2F780F6
:10394000802A00F2F680402A00F2F580202A00F258
:10395000F480102A00F2F380082A94BF002201228A
:10396000D5E012F0770F40F0F28000F108035B0120
:1039700003F1824311221A70794B3344B3F8843037
:10398000784A02EA8332B3F5007F0FD8B3F5807F1F
:1039900025D8802B25D8402B25D8202B25D8102B97
:1039A00025D8082B94BF0024012400E0072442EA14
:1039B00004726A60C3F30D04B3F5007F19D8B3F540
:1039C000807F51D8802B51D8402B51D8202B51D8F3
:1039D000102B51D8082B94BF002201220AE00624A4
:1039E000E5E70524E3E70424E1E70324DFE7022415
:1039F000DDE7072244EA02726A6100F108035B0115
:103A000003F1824340265E7180221A71544A02EB10
:103A100040130020987298768D006B189C00144417
:103A200094F8863003F00F03D4F880E05C01171996
:103A300042F804E029448D002A44B2F884107A68E0
:103A400061F39B327A607A6860F30D027A60083322
:103A50005B0103F18243B0221A715E7104F182446A
:103A6000102384F80931F0BD0622C3E70522C1E71F
:103A70000422BFE70322BDE70222BBE712F0700F6A
:103A800068D1374E8B005F18BC002746344494F849
:103A9000874004F0070442EA041200F108046401BC
:103AA00004F1824422703E44B6F88430C3F30D0220
:103AB000B3F5007F0FD8B3F5807F1DD8802B1DD8BC
:103AC000402B1DD8202B1DD8102B1DD8082B94BFA0
:103AD0000023012300E0072342EA03736B6100F136
:103AE00008035B0103F1824380221A711C4B03EB34
:103AF000401300209876F0BD0623EDE70523EBE7A1
:103B00000423E9E70323E7E70223E5E7072243EA83
:103B100002736B6000F108035B0103F182434022F2
:103B20005A710F4B03EB401300209872F0BD062230
:103B3000EDE70522EBE70422E9E70322E7E70222AB
:103B4000E5E76FF01100F0BD6FF01100F0BD6FF010
:103B50001300F0BD6FF01300F0BD6FF01300F0BD67
:103B60002401002000C0FF0F70B443B2DC0F10F03E
:103B70000F0005D0002B01DB034602E0831C00E0B0
:103B800003461E4603EB83039A001032464D2A4437
:103B90000432022800F28480012918D000293DD087
:103BA00006EB86039A00414B134493F8863003F0EA
:103BB0000F0308335B0103F182439A79102303FA60
:103BC00004F4224214BF0120002070BC7047A5F10C
:103BD0006001B300981982000A4492F8862002F02E
:103BE0000F021025A540EDB202F10800400100F1DE
:103BF00082404571202000FA04F4E4B2520102F13F
:103C0000824282F809411E44B3000B4493F8872096
:103C100042F0080283F887200020D6E7937C03F067
:103C20000F0303F10801490101F182418879102154
:103C3000A140084225D0C9B203F10800400100F1BB
:103C4000824001712021A140CEB25D0105F1824583
:103C500085F80861C07908420AD003F108014901DA
:103C600001F18241CE71012000FA04F4E4B20C713A
:103C7000D17C01F00701012905D0D37C6FF3C30388
:103C8000D3740020A1E708335B0103F182439B79E1
:103C900013F0300FF5D1D37C6FF3C303D374F0E787
:103CA0006FF0110091E700BF840100202401002083
:103CB00030B400F00F001A4A4301D418D558626896
:103CC000C2F30D02022822D821B300F108035B01E0
:103CD00003F182431B78DBB2112B1ED100F10803E4
:103CE0005B0103F18243DB7913F0100F02D1002056
:103CF00030BC70472C686B680C604B6000F10803A7
:103D00005B0103F182431021D9711046F0E76FF097
:103D10001100EDE76FF01100EAE76FF01200E7E73E
:103D2000240100202DE9F04F85B0037A4FFA83F883
:103D30004FEAD87913F00F0306D0B8F1000F01DB7A
:103D40001D4602E09D1C00E01D462C465C4901F129
:103D50006006AA0057194FEA870E0EF1100EB644FE
:103D60000EF10406BD002944B1F8842040F2FF3171
:103D70008A423DD0551EADB241680D40022B00F283
:103D800095800368B3F1005F0CD301EB030E4D4F38
:103D9000BE4507D813F0030F04D1B8F1000F29DB9B
:103DA00091422AD204EB84039A00454B1344D3F882
:103DB0008030002B7DD04FF0010AB8F1000F09DBF5
:103DC00045B104EB84039A003D4B1344D3F8803093
:103DD000002B71D004EB84039A00394B134493F801
:103DE000873013F0080F0BD0022005B0BDE8F08F2C
:103DF0001546C1E74FF0000ADFE74FF0000ADCE7A5
:103E0000074603A8304B984704EB84039A002C4BD9
:103E1000134493F8873013F0400F25D1A3002344B7
:103E20009A00274B03EB020B0BF180031946DB7959
:103E300043F040030191CB7103A8244B98473B68A2
:103E4000CBF874307B68CBF878300023CBF87C302B
:103E50000199CB7969F3C7136AF34513CB717B7A68
:103E60003BB1DDB1002105E003A8184B98470120C4
:103E7000BBE7002104EB8404A200114B134493F828
:103E8000872061F3041283F88720B8F1000F07DB65
:103E9000002130460E4B98470020A6E70121E9E7B4
:103EA000002130460B4B984700209EE76FF0110031
:103EB0009BE76FF0120098E76FF0110095E700BFE5
:103EC00024010020FF1F0320490D0000570D0000B2
:103ED00019310000B52F00000B4629B1012805D08B
:103EE00008B9044A13667047034BF7E7014A536663
:103EF000704700BF240100209D2C00000B4629B113
:103F000030B1012807D0022808D07047054BF7E7E9
:103F1000054A93667047044AD3667047024A13679E
:103F2000F3E700BF9D2C00002401002008B5014BE1
:103F3000984708BDD932000008B5014B984708BD25
:103F4000D932000008B5014B984708BDD9320000AE
:103F500008B5014B984708BDD932000010B504469A
:103F600038B303681BB3012050221649164B9847FB
:103F700023689A6812F00E0FFBD11A78D2091AD171
:103F80009A6812F00E0FFBD11A7812F0020F15D1B9
:103F90001A7802F0FB021A709A6812F00E0FFBD129
:103FA0002268537803F0F0035370002010BD002006
:103FB000DAE70020D8E76FF0100010BD6FF01000B6
:103FC00010BD00BFC05000004518000010B5CC88DF
:103FD000012A0AD04B78212B09D1072C0AD10023C2
:103FE00022460649064CA04710BD002010BD6FF0C8
:103FF0000C0010BD4FF0FF3010BD00BF0C030020BF
:10400000BD450000F0B583B007460C461646CD8886
:10401000204B98476378202B05D0222B25D06FF0BA
:104020000C0003B0F0BD0146072D2BD1BEB10068D6
:1040300000908A888B79ADF804208DF80630164BF5
:104040009B6813B168469847F8B1134B02AA12E96E
:10405000030018609980090C99710020E1E70023A2
:104060002A4638460D4CA047DBE700231A4619467E
:1040700018460A4DA847084BDB6843B1608898474B
:104080000020CEE74FF0FF30CBE70020C9E700204B
:10409000C7E700BF1D4B00000C030020BD4500001A
:1040A00038B50B78C3F34114012C11D18C880B4D1A
:1040B0002D7CAC4203D0094D6D7CAC420BD113F08A
:1040C000800F02D1064B984738BD064B984738BD44
:1040D0006FF0090038BD6FF0090038BD0C030020F7
:1040E00005400000CD3F00002DE9F8430E468768EB
:1040F00008684FF00008B8F1010F43D8002847D0F6
:1041000083784279022A01D00A2A45D1C14617F89C
:104110000820934244D0FF2A46D107F808300522F0
:104120007168254B984704460CE007EB09039D7026
:104130002846224B98473460207871682044204BF1
:104140009847044694B1A5782279637902EB03225B
:1041500092B2E17828461B4B984748BB15F0800F78
:10416000E3D13D712846154B9847E4E7336818784A
:10417000042271681844104B984708F101085FFA4F
:1041800088F8B8E70122104B5A750020BDE8F88383
:104190006FF00900BDE8F8836FF00900BDE8F8830F
:1041A0006FF01100BDE8F8836FF01B00BDE8F883E5
:1041B0006FF01300BDE8F8833D4B000029160000A6
:1041C000714B0000951500000C03002070B5866847
:1041D000D9B10B685B79022B19D00A2B24D10024AA
:1041E00001E00134E4B2012C13D82546335DFF2BE6
:1041F000F7D0FF23335533199878FF28F1D00C4BB3
:1042000098473544FF23AB70EBE70024EBE700242D
:10421000E9E73079FF2803D0054B9847FF23337136
:104220000020044B587570BD6FF0090070BD00BFD1
:10423000FD1500000C03002008B5012909D021B1AB
:1042400002290AD16FF01A0008BD1146044B9847A5
:1042500008BD1146034B984708BD6FF00C0008BD20
:10426000E9400000CD41000008B50B4B98470128FC
:104270000ED80A480A4BC36100F1100303621830DC
:10428000084B984708490120084B9847002008BD73
:104290006FF0100008BD00BF294B00000C03002088
:1042A00039420000C94A000000000020354A0000E1
:1042B00008B503281BD8DFE800F0020A12160A46E8
:1042C00002210C4B187D0C4B9847002008BD0A4674
:1042D0000221084BD87C084B9847002008BD054BAD
:1042E0009960002008BD034BD960002008BD6FF025
:1042F0000C0008BD0C030020F9170000014B587D8D
:10430000704700BF0C03002038B504460D46074B2C
:10431000984738B100232A4621460548007D054CC0
:10432000A04738BD6FF0100038BD00BFFD4200004F
:104330000C030020BD45000038B504460D46074B70
:10434000984738B101232A4621460548C07C054CD0
:10435000A04738BD6FF0100038BD00BFFD4200001F
:104360000C030020BD45000010B5064B1C6905E09C
:10437000636800220121204698472468002CF7D169
:1043800010BD00BF3003002010B5054B5C6800E095
:10439000246824B16368002BFAD09847F8E710BD71
:1043A0003003002070B506460D46064BDC6800E081
:1043B000246834B16368002BFAD029463046984708
:1043C000F6E770BD30030020F8B507460E461546E7
:1043D0000B4B9C6800E024686CB16368002BFAD03A
:1043E0002A4631463846984738B110F10A0FF2D0C4
:1043F0004FF0FF30F8BD0020F8BD0120F8BD00BF30
:104400003003002008B5014B984708BD89430000E0
:1044100008B5012201460020014B9847002008BD45
:10442000C943000008B5014B984708BD8915000035
:1044300003781BBB10B504464378052B0FD0092B1E
:1044400019D142880E4BDA76438833B903210C4BDD
:10445000997601200B4B984710BD0421F7E740885F
:10446000C0B2094B9847638833B10321044B997656
:104470000120044B984710BD0221F7E7704700BFA9
:1044800030030020A54300002544000008B519B101
:10449000012906D0002008BD1046044B9847002093
:1044A00008BD1046024B984708BD00BF31440000CC
:1044B0001144000030B583B0A8B102461D4B1B6803
:1044C000596818681C4B9847002830D08178C2780A
:1044D00001EB022110FA81F101910422174B984758
:1044E0000090FF240DE0164B984701201DE02C465C
:1044F0000098037818440090042201990F4B9847C4
:104500000090009B83B19D78AC42F1D0094B1C69AF
:10451000002CECD063686A4600212046984708B119
:104520002468F5E72C46E3E7012003B030BD002006
:10453000FBE700BF30030020954B00003D4B00001F
:104540006943000070B50D4B98470D4D0226AE76BD
:104550000024EC766C7720460A4B9847287F0A4B5C
:1045600098470A4A21462046094DA847094A31463C
:104570002046A8472046084B984770BD6943000075
:1045800030030020FD150000E9150000E949000096
:10459000F91700008D4400002916000008B510B17D
:1045A000012804D008BD0020024B984708BD024BEB
:1045B000984708BDA54300004545000000B585B0FB
:1045C000019102928DF80C008DF80D3001A8024B7C
:1045D000984705B05DF804FB751600000B7803F0F2
:1045E0001F03022B12D1CB880BB10020704710B5EE
:1045F000044688880021C0B2054B98470123002259
:1046000011462046034CA047012010BD00207047F2
:1046100089170000BD4500000B7803F01F03022B33
:1046200012D1CB880BB10020704710B504468888A2
:104630000121C0B2054B98470123002211462046B4
:10464000034CA047012010BD0020704789170000CF
:10465000BD45000070B582B005460C46294A136876
:10466000D27E59681868284B9847002842D000909D
:104670008178C27801EB022110FA81F101910422C4
:10468000224B9847034658B9002036E0009803783B
:1046900018440090042201991C4B9847034658B3D4
:1046A0009A78A242F2D1DA78AA42EFD10093154B60
:1046B0001E69EEB173686A4601213046984708B119
:1046C0003668F6E773686A46002130469847B0B905
:1046D00035B1012303FA04F40A4A537F2343537785
:1046E00000231A4619461846094CA047012004E049
:1046F000002002E0002000E0002002B070BD002099
:10470000FBE700BF30030020954B00003D4B00004D
:10471000BD45000010B504460A464B78013B0A2B04
:1047200032D8DFE803F02131263106313131103142
:104730002B00012300221146144CA047B0FA80F34D
:104740005B09184610BD5088C0B2114B984703460C
:104750000028F6D001230022114620460B4CA0472A
:10476000B0FA80F35B09ECE711460A4B9847034621
:10477000E7E71146084B98470346E2E791885088DF
:10478000064B98470346DCE70023DAE7BD45000007
:10479000B5440000DD450000194600005546000004
:1047A00038B50546CC88122C00D912240A4B1B6858
:1047B000012259681868094B9847014648B10023FF
:1047C00022462846064CA04708B9012038BD0020E3
:1047D00038BD002038BD00BF300300203D4B000035
:1047E000BD45000070B50546CC884A88D2B2124952
:1047F0000B7F013B1C420CBF012600260B680132D7
:10480000D2B2596818680D4B984790B1014682782A
:10481000C37802EB032292B2944201D822460026CA
:1048200033462846064CA04708B9012070BD002039
:1048300070BD002070BD00BF30030020954B00000C
:10484000BD45000070B50546CC884A880F490B7FEE
:10485000013B1C420CBF012600260B68D2B25968EE
:1048600018680B4B984770B101460278944201D802
:104870002246002633462846064CA04708B90120A8
:1048800070BD002070BD002070BD00BF300300204F
:10489000DD4B0000BD45000008B54B881B0A022B0C
:1048A00008D0032B09D0012B01D0002008BD044BF8
:1048B000984708BD034B984708BD034B984708BD70
:1048C000A1470000E54700004548000010B582B050
:1048D00004460B7803F01F03012B03D9022B11D0E0
:1048E00000200DE0002301930D494B69BDF8042021
:1048F0001A8000230222496920460A4CA047012061
:1049000002B010BD88880221C0B2074B984700282A
:1049100003DB00F001000190E6E70020F0E700BFB4
:1049200030030020BD4500008917000038B505465A
:10493000144B1C695B7F8288134113F0010F09D06F
:10494000F4B163682A4602212046984700280CDA11
:104950002468F5E70B494B690020187003460122D3
:104960004969094CA047012038BD06494B691870B8
:104970000023012249691846034CA047012038BD95
:10498000002038BD30030020BD45000010B54B7835
:104990000A2B1CD8DFE803F0141B1B1B1B1B061B78
:1049A000091B17000B4B984710BD0B494B69CA7E7A
:1049B0001A70002301224969084CA047012010BD4C
:1049C000074B984710BD0846064B984710BD00207E
:1049D00010BD00BF9948000030030020BD45000015
:1049E000CD4800002D49000038B505460C46002290
:1049F0000D4B9847B0F1FF3F13D0012806D0237824
:104A000013F0E00303D0802B06D0002038BD2146F0
:104A10002846064B984738BD21462846044B984700
:104A200038BD002038BD00BFC94300001547000055
:104A30008D49000008B5012807D010B1022808D020
:104A400008BD0648064B984708BD0648044B9847E2
:104A500008BD0548024B984708BD00BF340300203D
:104A600095180000380300203C03002038B50546A7
:104A700040F255320C49003018BF01200B4B9847CB
:104A80000B4B984700280EDB0A4C202200212046C1
:104A9000094B9847656109490020094CA04709491D
:104AA0000120A047002038BDD85000004518000064
:104AB000F914000030030020574D000005440000A9
:104AC000651500009D45000008B501460148024BF0
:104AD000984708BD400300209518000008B50A4B10
:104AE0009B7E5BB968B1084B18600268D2791A776F
:104AF00001229A76054B9847002008BD6FF003000D
:104B000008BD6FF0080008BD3003002071150000DB
:104B100008B5014B984708BD7D150000014B586949
:104B2000704700BF30030020034B987E10F0100F39
:104B300000D01020704700BF30030020884213D2FD
:104B40000378012B12D910B402E00378012B09D9A4
:104B50004478944203D018448842F6D300205DF88C
:104B6000044B70470020FAE7002070470020704790
:104B7000884209D20378012B08D94278042A07D049
:104B8000052A06D01844F3E700207047002070473C
:104B90000020704738B50C46154602220E4B984748
:104BA000034690B1A3420FD21A78012A0FD95A783E
:104BB000022A0ED15A79AA4207D09A78D97802EB04
:104BC000012213FA82F3EDE70023184638BD0023D3
:104BD000FBE70023F9E700BF3D4B000070B50D4631
:104BE00016460024A8420ED203222946084B9847B5
:104BF000034648B10078012808D9B44204D00134F2
:104C0000E4B21844EEE70023184670BD0023FBE72A
:104C10003D4B000008B5034B9847034B98470020D5
:104C200008BD00BFD1020000CD4C000010B582B01D
:104C3000ADF8040010F0010F02D1002002B010BD49
:104C400005490020054CA04705490120A047402107
:104C50000448054B9847F0E7854C0000B14200003E
:104C60006D4C0000500300200943000008B54021AE
:104C70000248034B9847002008BD00BF50030020A6
:104C80000943000008B511460248034B984700202D
:104C900008BD00BF500300203943000008B5054897
:104CA000054B9847054B98470548064B9847064BD8
:104CB000984708BD900300206D4A0000694200003B
:104CC00008000020DD4A0000114B000008B5044B2D
:104CD00098470028FBD003490320034B9847FEE781
:104CE000FD4200002D4C0000B142000008B5014B10
:104CF000984708BD9D4C000070B50D4E0D4CA41B8F
:104D0000A4100025A54209D10B4E0C4C00F0F0F97F
:104D1000A41BA4100025A54205D170BD56F825306E
:104D200098470135EEE756F8253098470135F2E708
:104D3000FC500000FC500000FC500000005100003E
:104D400010B5431E0A44914200D110BD11F8014B29
:104D500003F8014FF7E702440346934200D170473E
:104D600003F8011BF9E700002E2E2F68616C2F69F4
:104D70006E636C7564652F68616C5F7764742E6810
:104D8000000000002E2E2F68616C2F7372632F6855
:104D9000616C5F6164635F73796E632E6300000012
:104DA0002E2E2F68616C2F7372632F68616C5F66A3
:104DB0006C6173682E6300002E2E2F68616C2F7358
:104DC00072632F68616C5F6932635F6D5F73796EC8
:104DD000632E63002E2E2F68616C2F7372632F6811
:104DE000616C5F72616E645F73796E632E63000045
:104DF0002E2E2F68616C2F7372632F68616C5F7346
:104E000070695F6D5F73796E632E63002E2E2F685D
:104E1000616C2F7372632F68616C5F74696D65726A
:104E20002E6300002E2E2F68616C2F7372632F6823
:104E3000616C5F75736172745F6173796E632E6309
:104E4000000000002E2E2F68616C2F7574696C7342
:104E50002F7372632F7574696C735F6C6973742E32
:104E6000630000002E2E2F68616C2F7574696C73BF
:104E70002F7372632F7574696C735F72696E6762EA
:104E800075666665722E6300000000000000000079
:104E90008100000000000000000000000000000091
:104EA0002E2E2F68706C2F6164632F68706C5F61A9
:104EB00064632E630000000000000000000000009A
:104EC00000000000000000000000000000000000E2
:104ED00000000000000000000000000000000000D2
:104EE00000000000000000000000000000000000C2
:104EF00000000000000000000000000000000000B2
:104F000000000000000000000000000000000000A1
:104F10000000000000000000000000000000000091
:104F20000000000000000000000000000000000081
:104F30000000000000000000000000000000000071
:104F40000000000000000000000000000000000061
:104F50000000000000000000000000000000000051
:104F60000000000000000000000000000000000041
:104F70000000000000000000000000000000000031
:104F80000000000000000000000000000000000021
:104F90000000000000000000000000000000000011
:104FA0000000000000000000000000000000000001
:104FB0000000000000000000000000002E2E2F68FE
:104FC000706C2F6E766D6374726C2F68706C5F6E90
:104FD000766D6374726C2E63000000002E2E2F68B5
:104FE000706C2F7274632F68706C5F7274632E63C1
:104FF000000000000030004000340040002001416B
:105000000040014100000043000400430200000092
:105010000400104000000300020070002EFF00009A
:105020000000000005000000140020000001000046
:10503000E5E600000000D700006CDC020000000084
:105040000000000000000000000000000C00020052
:105050000000020000000000FE00FF010000000050
:105060002E2E2F68706C2F736572636F6D2F6870B2
:105070006C5F736572636F6D2E6300002E2E2F6858
:10508000706C2F74726E672F68706C5F74726E67CD
:105090002E630000254A000004080000CC02002016
:1050A00000000000400000008C0200200000000012
:1050B000400000004C020020000000004000000002
:1050C0002E2E2F68706C2F7764742F68706C5F774A
:1050D00064742E63000000002E2E2F7573622F64FF
:1050E00065766963652F75736264632E63000000E3
:1050F000F8B500BFF8BC08BC9E46704789020000A6
:10510000F8B500BFF8BC08BC9E46704765020000B9
:1051100000000000A14000001000002065000020F9
:105120001201000202000040EB0304240001000011
:10513000000109024300020100803209040000015D
:1051400002020000052400011005240101000424CE
:10515000020205240600010705820340000A090433
:105160000100020A000000070501024000000705D7
:08517000810240000000000074
:00000001FF
